{
  "contractName": "PFPMEGO",
  "abi": [
    {
      "inputs": [
        {
          "internalType": "address",
          "name": "MEGO",
          "type": "address"
        },
        {
          "internalType": "address",
          "name": "PFP",
          "type": "address"
        },
        {
          "internalType": "string",
          "name": "_gate",
          "type": "string"
        }
      ],
      "stateMutability": "nonpayable",
      "type": "constructor"
    },
    {
      "anonymous": false,
      "inputs": [
        {
          "indexed": true,
          "internalType": "address",
          "name": "previousOwner",
          "type": "address"
        },
        {
          "indexed": true,
          "internalType": "address",
          "name": "newOwner",
          "type": "address"
        }
      ],
      "name": "OwnershipTransferred",
      "type": "event"
    },
    {
      "inputs": [
        {
          "internalType": "uint256",
          "name": "",
          "type": "uint256"
        }
      ],
      "name": "_idToName",
      "outputs": [
        {
          "internalType": "string",
          "name": "",
          "type": "string"
        }
      ],
      "stateMutability": "view",
      "type": "function",
      "constant": true
    },
    {
      "inputs": [
        {
          "internalType": "uint256",
          "name": "",
          "type": "uint256"
        }
      ],
      "name": "_nameToPfp",
      "outputs": [
        {
          "internalType": "uint256",
          "name": "",
          "type": "uint256"
        }
      ],
      "stateMutability": "view",
      "type": "function",
      "constant": true
    },
    {
      "inputs": [
        {
          "internalType": "uint256",
          "name": "",
          "type": "uint256"
        }
      ],
      "name": "_pfpToName",
      "outputs": [
        {
          "internalType": "uint256",
          "name": "",
          "type": "uint256"
        }
      ],
      "stateMutability": "view",
      "type": "function",
      "constant": true
    },
    {
      "inputs": [],
      "name": "amount",
      "outputs": [
        {
          "internalType": "uint256",
          "name": "",
          "type": "uint256"
        }
      ],
      "stateMutability": "view",
      "type": "function",
      "constant": true
    },
    {
      "inputs": [],
      "name": "linked",
      "outputs": [
        {
          "internalType": "uint256",
          "name": "",
          "type": "uint256"
        }
      ],
      "stateMutability": "view",
      "type": "function",
      "constant": true
    },
    {
      "inputs": [],
      "name": "manager",
      "outputs": [
        {
          "internalType": "address",
          "name": "",
          "type": "address"
        }
      ],
      "stateMutability": "view",
      "type": "function",
      "constant": true
    },
    {
      "inputs": [],
      "name": "owner",
      "outputs": [
        {
          "internalType": "address",
          "name": "",
          "type": "address"
        }
      ],
      "stateMutability": "view",
      "type": "function",
      "constant": true
    },
    {
      "inputs": [],
      "name": "paid",
      "outputs": [
        {
          "internalType": "uint256",
          "name": "",
          "type": "uint256"
        }
      ],
      "stateMutability": "view",
      "type": "function",
      "constant": true
    },
    {
      "inputs": [],
      "name": "renounceOwnership",
      "outputs": [],
      "stateMutability": "nonpayable",
      "type": "function"
    },
    {
      "inputs": [
        {
          "internalType": "address",
          "name": "newOwner",
          "type": "address"
        }
      ],
      "name": "transferOwnership",
      "outputs": [],
      "stateMutability": "nonpayable",
      "type": "function"
    },
    {
      "inputs": [
        {
          "internalType": "address",
          "name": "MEGO",
          "type": "address"
        }
      ],
      "name": "fixMEGO",
      "outputs": [],
      "stateMutability": "nonpayable",
      "type": "function"
    },
    {
      "inputs": [
        {
          "internalType": "address",
          "name": "PFP",
          "type": "address"
        }
      ],
      "name": "fixPFP",
      "outputs": [],
      "stateMutability": "nonpayable",
      "type": "function"
    },
    {
      "inputs": [
        {
          "internalType": "string",
          "name": "_gate",
          "type": "string"
        }
      ],
      "name": "fixGate",
      "outputs": [],
      "stateMutability": "nonpayable",
      "type": "function"
    },
    {
      "inputs": [
        {
          "internalType": "address",
          "name": "_manager",
          "type": "address"
        }
      ],
      "name": "fixManager",
      "outputs": [],
      "stateMutability": "nonpayable",
      "type": "function"
    },
    {
      "inputs": [
        {
          "internalType": "uint256",
          "name": "_amount",
          "type": "uint256"
        }
      ],
      "name": "fixReward",
      "outputs": [],
      "stateMutability": "nonpayable",
      "type": "function"
    },
    {
      "inputs": [],
      "name": "depositEarnings",
      "outputs": [],
      "stateMutability": "payable",
      "type": "function",
      "payable": true
    },
    {
      "inputs": [
        {
          "internalType": "string",
          "name": "_name",
          "type": "string"
        },
        {
          "internalType": "uint256",
          "name": "pfpId",
          "type": "uint256"
        }
      ],
      "name": "canAdd",
      "outputs": [
        {
          "internalType": "bool",
          "name": "",
          "type": "bool"
        }
      ],
      "stateMutability": "view",
      "type": "function",
      "constant": true
    },
    {
      "inputs": [
        {
          "internalType": "string",
          "name": "_name",
          "type": "string"
        },
        {
          "internalType": "uint256",
          "name": "pfpId",
          "type": "uint256"
        }
      ],
      "name": "linkName",
      "outputs": [],
      "stateMutability": "nonpayable",
      "type": "function"
    },
    {
      "inputs": [
        {
          "internalType": "string",
          "name": "_name",
          "type": "string"
        }
      ],
      "name": "unlinkName",
      "outputs": [],
      "stateMutability": "nonpayable",
      "type": "function"
    },
    {
      "inputs": [
        {
          "internalType": "uint256",
          "name": "pfpId",
          "type": "uint256"
        }
      ],
      "name": "returnName",
      "outputs": [
        {
          "internalType": "string",
          "name": "",
          "type": "string"
        }
      ],
      "stateMutability": "view",
      "type": "function",
      "constant": true
    },
    {
      "inputs": [
        {
          "internalType": "string",
          "name": "_name",
          "type": "string"
        }
      ],
      "name": "returnPfpId",
      "outputs": [
        {
          "internalType": "uint256",
          "name": "",
          "type": "uint256"
        }
      ],
      "stateMutability": "view",
      "type": "function",
      "constant": true
    },
    {
      "inputs": [
        {
          "internalType": "string",
          "name": "_name",
          "type": "string"
        }
      ],
      "name": "returnPfpURI",
      "outputs": [
        {
          "internalType": "string",
          "name": "",
          "type": "string"
        }
      ],
      "stateMutability": "view",
      "type": "function",
      "constant": true
    },
    {
      "inputs": [],
      "name": "withdrawMatic",
      "outputs": [],
      "stateMutability": "nonpayable",
      "type": "function"
    }
  ],
  "bytecode": "0x60806040526040518060400160405280600381526020017f617065000000000000000000000000000000000000000000000000000000000081525060039080519060200190620000519291906200022b565b5060006005556000600655671bc16d674ec800006007553480156200007557600080fd5b50604051620030ff380380620030ff83398181016040528101906200009b9190620004dd565b620000bb620000af6200015f60201b60201c565b6200016760201b60201c565b82600260006101000a81548173ffffffffffffffffffffffffffffffffffffffff021916908373ffffffffffffffffffffffffffffffffffffffff16021790555081600160006101000a81548173ffffffffffffffffffffffffffffffffffffffff021916908373ffffffffffffffffffffffffffffffffffffffff1602179055508060039080519060200190620001559291906200022b565b50505050620005bd565b600033905090565b60008060009054906101000a900473ffffffffffffffffffffffffffffffffffffffff169050816000806101000a81548173ffffffffffffffffffffffffffffffffffffffff021916908373ffffffffffffffffffffffffffffffffffffffff1602179055508173ffffffffffffffffffffffffffffffffffffffff168173ffffffffffffffffffffffffffffffffffffffff167f8be0079c531659141344cd1fd0a4f28419497f9722a3daafe3b4186f6b6457e060405160405180910390a35050565b828054620002399062000587565b90600052602060002090601f0160209004810192826200025d5760008555620002a9565b82601f106200027857805160ff1916838001178555620002a9565b82800160010185558215620002a9579182015b82811115620002a85782518255916020019190600101906200028b565b5b509050620002b89190620002bc565b5090565b5b80821115620002d7576000816000905550600101620002bd565b5090565b6000604051905090565b600080fd5b600080fd5b600073ffffffffffffffffffffffffffffffffffffffff82169050919050565b60006200031c82620002ef565b9050919050565b6200032e816200030f565b81146200033a57600080fd5b50565b6000815190506200034e8162000323565b92915050565b600080fd5b600080fd5b6000601f19601f8301169050919050565b7f4e487b7100000000000000000000000000000000000000000000000000000000600052604160045260246000fd5b620003a9826200035e565b810181811067ffffffffffffffff82111715620003cb57620003ca6200036f565b5b80604052505050565b6000620003e0620002db565b9050620003ee82826200039e565b919050565b600067ffffffffffffffff8211156200041157620004106200036f565b5b6200041c826200035e565b9050602081019050919050565b60005b83811015620004495780820151818401526020810190506200042c565b8381111562000459576000848401525b50505050565b6000620004766200047084620003f3565b620003d4565b90508281526020810184848401111562000495576200049462000359565b5b620004a284828562000429565b509392505050565b600082601f830112620004c257620004c162000354565b5b8151620004d48482602086016200045f565b91505092915050565b600080600060608486031215620004f957620004f8620002e5565b5b600062000509868287016200033d565b93505060206200051c868287016200033d565b925050604084015167ffffffffffffffff81111562000540576200053f620002ea565b5b6200054e86828701620004aa565b9150509250925092565b7f4e487b7100000000000000000000000000000000000000000000000000000000600052602260045260246000fd5b60006002820490506001821680620005a057607f821691505b60208210811415620005b757620005b662000558565b5b50919050565b612b3280620005cd6000396000f3fe6080604052600436106101405760003560e01c80638867ee43116100b6578063dc5c6e191161006f578063dc5c6e191461043d578063ebc9634414610466578063ecbd70571461048f578063f2fde38b146104b8578063f7f86668146104e1578063faf497a11461051e57610140565b80638867ee43146103385780638da5cb5b14610375578063a8778aa6146103a0578063aa8c217c146103dd578063d2c6790814610408578063d4fa3fb81461041257610140565b80634cb0249b116101085780634cb0249b1461023e5780636a294c0a1461027b5780636fccb969146102a4578063715018a6146102cd578063810074c6146102e457806382ef1614146102fb57610140565b8063120b152a146101455780631c67694214610182578063295b4e17146101ab578063481c6a75146101d6578063496e316814610201575b600080fd5b34801561015157600080fd5b5061016c60048036038101906101679190611d0e565b610547565b6040516101799190611dd4565b60405180910390f35b34801561018e57600080fd5b506101a960048036038101906101a49190611e54565b6107a9565b005b3480156101b757600080fd5b506101c0610869565b6040516101cd9190611e90565b60405180910390f35b3480156101e257600080fd5b506101eb61086f565b6040516101f89190611eba565b60405180910390f35b34801561020d57600080fd5b506102286004803603810190610223919061200a565b610895565b6040516102359190612081565b60405180910390f35b34801561024a57600080fd5b506102656004803603810190610260919061209c565b610c1a565b6040516102729190611e90565b60405180910390f35b34801561028757600080fd5b506102a2600480360381019061029d9190611e54565b610dee565b005b3480156102b057600080fd5b506102cb60048036038101906102c69190611d0e565b610eae565b005b3480156102d957600080fd5b506102e2610f34565b005b3480156102f057600080fd5b506102f9610fbc565b005b34801561030757600080fd5b50610322600480360381019061031d919061209c565b61111b565b60405161032f9190611dd4565b60405180910390f35b34801561034457600080fd5b5061035f600480360381019061035a9190611d0e565b611390565b60405161036c9190611e90565b60405180910390f35b34801561038157600080fd5b5061038a6113a8565b6040516103979190611eba565b60405180910390f35b3480156103ac57600080fd5b506103c760048036038101906103c29190611d0e565b6113d1565b6040516103d49190611e90565b60405180910390f35b3480156103e957600080fd5b506103f26113e9565b6040516103ff9190611e90565b60405180910390f35b6104106113ef565b005b34801561041e57600080fd5b506104276114fc565b6040516104349190611e90565b60405180910390f35b34801561044957600080fd5b50610464600480360381019061045f919061209c565b611502565b005b34801561047257600080fd5b5061048d60048036038101906104889190611e54565b611598565b005b34801561049b57600080fd5b506104b660048036038101906104b1919061209c565b611658565b005b3480156104c457600080fd5b506104df60048036038101906104da9190611e54565b61174c565b005b3480156104ed57600080fd5b5061050860048036038101906105039190611d0e565b611844565b6040516105159190611dd4565b60405180910390f35b34801561052a57600080fd5b506105456004803603810190610540919061200a565b6118e4565b005b6060600060086000848152602001908152602001600020549050600160009054906101000a900473ffffffffffffffffffffffffffffffffffffffff1673ffffffffffffffffffffffffffffffffffffffff16636352211e846040518263ffffffff1660e01b81526004016105bc9190611e90565b602060405180830381865afa1580156105d9573d6000803e3d6000fd5b505050506040513d601f19601f820116820180604052508101906105fd91906120fa565b73ffffffffffffffffffffffffffffffffffffffff16600260009054906101000a900473ffffffffffffffffffffffffffffffffffffffff1673ffffffffffffffffffffffffffffffffffffffff16636352211e836040518263ffffffff1660e01b815260040161066e9190611e90565b602060405180830381865afa15801561068b573d6000803e3d6000fd5b505050506040513d601f19601f820116820180604052508101906106af91906120fa565b73ffffffffffffffffffffffffffffffffffffffff1614610705576040517f08c379a00000000000000000000000000000000000000000000000000000000081526004016106fc90612173565b60405180910390fd5b600a60008281526020019081526020016000208054610723906121c2565b80601f016020809104026020016040519081016040528092919081815260200182805461074f906121c2565b801561079c5780601f106107715761010080835404028352916020019161079c565b820191906000526020600020905b81548152906001019060200180831161077f57829003601f168201915b5050505050915050919050565b6107b1611a46565b73ffffffffffffffffffffffffffffffffffffffff166107cf6113a8565b73ffffffffffffffffffffffffffffffffffffffff1614610825576040517f08c379a000000000000000000000000000000000000000000000000000000000815260040161081c90612240565b60405180910390fd5b80600260006101000a81548173ffffffffffffffffffffffffffffffffffffffff021916908373ffffffffffffffffffffffffffffffffffffffff16021790555050565b60065481565b600460009054906101000a900473ffffffffffffffffffffffffffffffffffffffff1681565b600080600260009054906101000a900473ffffffffffffffffffffffffffffffffffffffff1673ffffffffffffffffffffffffffffffffffffffff166370a08231336040518263ffffffff1660e01b81526004016108f39190611eba565b602060405180830381865afa158015610910573d6000803e3d6000fd5b505050506040513d601f19601f820116820180604052508101906109349190612275565b90506000600160009054906101000a900473ffffffffffffffffffffffffffffffffffffffff1673ffffffffffffffffffffffffffffffffffffffff166370a08231336040518263ffffffff1660e01b81526004016109939190611eba565b602060405180830381865afa1580156109b0573d6000803e3d6000fd5b505050506040513d601f19601f820116820180604052508101906109d49190612275565b90506000821180156109e65750600081115b610a25576040517f08c379a0000000000000000000000000000000000000000000000000000000008152600401610a1c90612314565b60405180910390fd5b6000610a3086611a4e565b90503373ffffffffffffffffffffffffffffffffffffffff16600260009054906101000a900473ffffffffffffffffffffffffffffffffffffffff1673ffffffffffffffffffffffffffffffffffffffff16636352211e836040518263ffffffff1660e01b8152600401610aa49190611e90565b602060405180830381865afa158015610ac1573d6000803e3d6000fd5b505050506040513d601f19601f82011682018060405250810190610ae591906120fa565b73ffffffffffffffffffffffffffffffffffffffff16148015610bce57503373ffffffffffffffffffffffffffffffffffffffff16600160009054906101000a900473ffffffffffffffffffffffffffffffffffffffff1673ffffffffffffffffffffffffffffffffffffffff16636352211e876040518263ffffffff1660e01b8152600401610b759190611e90565b602060405180830381865afa158015610b92573d6000803e3d6000fd5b505050506040513d601f19601f82011682018060405250810190610bb691906120fa565b73ffffffffffffffffffffffffffffffffffffffff16145b610c0d576040517f08c379a0000000000000000000000000000000000000000000000000000000008152600401610c04906123a6565b60405180910390fd5b6001935050505092915050565b600080610c2683611a4e565b9050600060096000838152602001908152602001600020549050600160009054906101000a900473ffffffffffffffffffffffffffffffffffffffff1673ffffffffffffffffffffffffffffffffffffffff16636352211e826040518263ffffffff1660e01b8152600401610c9b9190611e90565b602060405180830381865afa158015610cb8573d6000803e3d6000fd5b505050506040513d601f19601f82011682018060405250810190610cdc91906120fa565b73ffffffffffffffffffffffffffffffffffffffff16600260009054906101000a900473ffffffffffffffffffffffffffffffffffffffff1673ffffffffffffffffffffffffffffffffffffffff16636352211e846040518263ffffffff1660e01b8152600401610d4d9190611e90565b602060405180830381865afa158015610d6a573d6000803e3d6000fd5b505050506040513d601f19601f82011682018060405250810190610d8e91906120fa565b73ffffffffffffffffffffffffffffffffffffffff1614610de4576040517f08c379a0000000000000000000000000000000000000000000000000000000008152600401610ddb90612173565b60405180910390fd5b8092505050919050565b610df6611a46565b73ffffffffffffffffffffffffffffffffffffffff16610e146113a8565b73ffffffffffffffffffffffffffffffffffffffff1614610e6a576040517f08c379a0000000000000000000000000000000000000000000000000000000008152600401610e6190612240565b60405180910390fd5b80600460006101000a81548173ffffffffffffffffffffffffffffffffffffffff021916908373ffffffffffffffffffffffffffffffffffffffff16021790555050565b610eb6611a46565b73ffffffffffffffffffffffffffffffffffffffff16610ed46113a8565b73ffffffffffffffffffffffffffffffffffffffff1614610f2a576040517f08c379a0000000000000000000000000000000000000000000000000000000008152600401610f2190612240565b60405180910390fd5b8060078190555050565b610f3c611a46565b73ffffffffffffffffffffffffffffffffffffffff16610f5a6113a8565b73ffffffffffffffffffffffffffffffffffffffff1614610fb0576040517f08c379a0000000000000000000000000000000000000000000000000000000008152600401610fa790612240565b60405180910390fd5b610fba6000611b5d565b565b610fc46113a8565b73ffffffffffffffffffffffffffffffffffffffff163373ffffffffffffffffffffffffffffffffffffffff16148061104a5750600460009054906101000a900473ffffffffffffffffffffffffffffffffffffffff1673ffffffffffffffffffffffffffffffffffffffff163373ffffffffffffffffffffffffffffffffffffffff16145b611089576040517f08c379a000000000000000000000000000000000000000000000000000000000815260040161108090612438565b60405180910390fd5b6000479050600081116110d1576040517f08c379a00000000000000000000000000000000000000000000000000000000081526004016110c8906124a4565b60405180910390fd5b3373ffffffffffffffffffffffffffffffffffffffff166108fc829081150290604051600060405180830381858888f19350505050158015611117573d6000803e3d6000fd5b5050565b6060600061112883611a4e565b9050600060096000838152602001908152602001600020549050600160009054906101000a900473ffffffffffffffffffffffffffffffffffffffff1673ffffffffffffffffffffffffffffffffffffffff16636352211e826040518263ffffffff1660e01b815260040161119d9190611e90565b602060405180830381865afa1580156111ba573d6000803e3d6000fd5b505050506040513d601f19601f820116820180604052508101906111de91906120fa565b73ffffffffffffffffffffffffffffffffffffffff16600260009054906101000a900473ffffffffffffffffffffffffffffffffffffffff1673ffffffffffffffffffffffffffffffffffffffff16636352211e846040518263ffffffff1660e01b815260040161124f9190611e90565b602060405180830381865afa15801561126c573d6000803e3d6000fd5b505050506040513d601f19601f8201168201806040525081019061129091906120fa565b73ffffffffffffffffffffffffffffffffffffffff16146112e6576040517f08c379a00000000000000000000000000000000000000000000000000000000081526004016112dd90612173565b60405180910390fd5b600160009054906101000a900473ffffffffffffffffffffffffffffffffffffffff1673ffffffffffffffffffffffffffffffffffffffff1663c87b56dd826040518263ffffffff1660e01b81526004016113419190611e90565b600060405180830381865afa15801561135e573d6000803e3d6000fd5b505050506040513d6000823e3d601f19601f820116820180604052508101906113879190612534565b92505050919050565b60086020528060005260406000206000915090505481565b60008060009054906101000a900473ffffffffffffffffffffffffffffffffffffffff16905090565b60096020528060005260406000206000915090505481565b60075481565b6113f7611a46565b73ffffffffffffffffffffffffffffffffffffffff166114156113a8565b73ffffffffffffffffffffffffffffffffffffffff161461146b576040517f08c379a000000000000000000000000000000000000000000000000000000000815260040161146290612240565b60405180910390fd5b600060065460055461147d91906125ac565b905060006007548261148f91906125e0565b90506000341180156114a057508034145b6114df576040517f08c379a00000000000000000000000000000000000000000000000000000000081526004016114d690612686565b60405180910390fd5b81600660008282546114f191906126a6565b925050819055505050565b60055481565b61150a611a46565b73ffffffffffffffffffffffffffffffffffffffff166115286113a8565b73ffffffffffffffffffffffffffffffffffffffff161461157e576040517f08c379a000000000000000000000000000000000000000000000000000000000815260040161157590612240565b60405180910390fd5b8060039080519060200190611594929190611c21565b5050565b6115a0611a46565b73ffffffffffffffffffffffffffffffffffffffff166115be6113a8565b73ffffffffffffffffffffffffffffffffffffffff1614611614576040517f08c379a000000000000000000000000000000000000000000000000000000000815260040161160b90612240565b60405180910390fd5b80600160006101000a81548173ffffffffffffffffffffffffffffffffffffffff021916908373ffffffffffffffffffffffffffffffffffffffff16021790555050565b600061166382611a4e565b90506000600960008381526020019081526020016000205490506116878382610895565b6116c6576040517f08c379a00000000000000000000000000000000000000000000000000000000081526004016116bd90612748565b60405180910390fd5b600060086000838152602001908152602001600020819055506000600960008481526020019081526020016000208190555060405180602001604052806000815250600a6000848152602001908152602001600020908051906020019061172e929190611c21565b506005600081548092919061174290612768565b9190505550505050565b611754611a46565b73ffffffffffffffffffffffffffffffffffffffff166117726113a8565b73ffffffffffffffffffffffffffffffffffffffff16146117c8576040517f08c379a00000000000000000000000000000000000000000000000000000000081526004016117bf90612240565b60405180910390fd5b600073ffffffffffffffffffffffffffffffffffffffff168173ffffffffffffffffffffffffffffffffffffffff161415611838576040517f08c379a000000000000000000000000000000000000000000000000000000000815260040161182f90612804565b60405180910390fd5b61184181611b5d565b50565b600a6020528060005260406000206000915090508054611863906121c2565b80601f016020809104026020016040519081016040528092919081815260200182805461188f906121c2565b80156118dc5780601f106118b1576101008083540402835291602001916118dc565b820191906000526020600020905b8154815290600101906020018083116118bf57829003601f168201915b505050505081565b6118ee8282610895565b61192d576040517f08c379a000000000000000000000000000000000000000000000000000000000815260040161192490612870565b60405180910390fd5b600061193883611a4e565b905060006009600083815260200190815260200160002054148015611970575060006008600084815260200190815260200160002054145b6119af576040517f08c379a00000000000000000000000000000000000000000000000000000000081526004016119a6906128dc565b60405180910390fd5b8060086000848152602001908152602001600020819055508160096000838152602001908152602001600020819055508260036040516020016119f3929190612a18565b604051602081830303815290604052600a60008381526020019081526020016000209080519060200190611a28929190611c21565b5060056000815480929190611a3c90612a47565b9190505550505050565b600033905090565b600080600260009054906101000a900473ffffffffffffffffffffffffffffffffffffffff1673ffffffffffffffffffffffffffffffffffffffff1663a47cf974846003604051602001611aa3929190612a18565b6040516020818303038152906040526040518263ffffffff1660e01b8152600401611ace9190611dd4565b602060405180830381865afa158015611aeb573d6000803e3d6000fd5b505050506040513d601f19601f82011682018060405250810190611b0f9190612275565b905060008111611b54576040517f08c379a0000000000000000000000000000000000000000000000000000000008152600401611b4b90612adc565b60405180910390fd5b80915050919050565b60008060009054906101000a900473ffffffffffffffffffffffffffffffffffffffff169050816000806101000a81548173ffffffffffffffffffffffffffffffffffffffff021916908373ffffffffffffffffffffffffffffffffffffffff1602179055508173ffffffffffffffffffffffffffffffffffffffff168173ffffffffffffffffffffffffffffffffffffffff167f8be0079c531659141344cd1fd0a4f28419497f9722a3daafe3b4186f6b6457e060405160405180910390a35050565b828054611c2d906121c2565b90600052602060002090601f016020900481019282611c4f5760008555611c96565b82601f10611c6857805160ff1916838001178555611c96565b82800160010185558215611c96579182015b82811115611c95578251825591602001919060010190611c7a565b5b509050611ca39190611ca7565b5090565b5b80821115611cc0576000816000905550600101611ca8565b5090565b6000604051905090565b600080fd5b600080fd5b6000819050919050565b611ceb81611cd8565b8114611cf657600080fd5b50565b600081359050611d0881611ce2565b92915050565b600060208284031215611d2457611d23611cce565b5b6000611d3284828501611cf9565b91505092915050565b600081519050919050565b600082825260208201905092915050565b60005b83811015611d75578082015181840152602081019050611d5a565b83811115611d84576000848401525b50505050565b6000601f19601f8301169050919050565b6000611da682611d3b565b611db08185611d46565b9350611dc0818560208601611d57565b611dc981611d8a565b840191505092915050565b60006020820190508181036000830152611dee8184611d9b565b905092915050565b600073ffffffffffffffffffffffffffffffffffffffff82169050919050565b6000611e2182611df6565b9050919050565b611e3181611e16565b8114611e3c57600080fd5b50565b600081359050611e4e81611e28565b92915050565b600060208284031215611e6a57611e69611cce565b5b6000611e7884828501611e3f565b91505092915050565b611e8a81611cd8565b82525050565b6000602082019050611ea56000830184611e81565b92915050565b611eb481611e16565b82525050565b6000602082019050611ecf6000830184611eab565b92915050565b600080fd5b600080fd5b7f4e487b7100000000000000000000000000000000000000000000000000000000600052604160045260246000fd5b611f1782611d8a565b810181811067ffffffffffffffff82111715611f3657611f35611edf565b5b80604052505050565b6000611f49611cc4565b9050611f558282611f0e565b919050565b600067ffffffffffffffff821115611f7557611f74611edf565b5b611f7e82611d8a565b9050602081019050919050565b82818337600083830152505050565b6000611fad611fa884611f5a565b611f3f565b905082815260208101848484011115611fc957611fc8611eda565b5b611fd4848285611f8b565b509392505050565b600082601f830112611ff157611ff0611ed5565b5b8135612001848260208601611f9a565b91505092915050565b6000806040838503121561202157612020611cce565b5b600083013567ffffffffffffffff81111561203f5761203e611cd3565b5b61204b85828601611fdc565b925050602061205c85828601611cf9565b9150509250929050565b60008115159050919050565b61207b81612066565b82525050565b60006020820190506120966000830184612072565b92915050565b6000602082840312156120b2576120b1611cce565b5b600082013567ffffffffffffffff8111156120d0576120cf611cd3565b5b6120dc84828501611fdc565b91505092915050565b6000815190506120f481611e28565b92915050565b6000602082840312156121105761210f611cce565b5b600061211e848285016120e5565b91505092915050565b7f4f776e6572206973206e6f74207468652073616d652e00000000000000000000600082015250565b600061215d601683611d46565b915061216882612127565b602082019050919050565b6000602082019050818103600083015261218c81612150565b9050919050565b7f4e487b7100000000000000000000000000000000000000000000000000000000600052602260045260246000fd5b600060028204905060018216806121da57607f821691505b602082108114156121ee576121ed612193565b5b50919050565b7f4f776e61626c653a2063616c6c6572206973206e6f7420746865206f776e6572600082015250565b600061222a602083611d46565b9150612235826121f4565b602082019050919050565b600060208201905081810360008301526122598161221d565b9050919050565b60008151905061226f81611ce2565b92915050565b60006020828403121561228b5761228a611cce565b5b600061229984828501612260565b91505092915050565b7f4d757374206f776e206174206c65617374206f6e65206e616d6520616e64206f60008201527f6e65207066702e00000000000000000000000000000000000000000000000000602082015250565b60006122fe602783611d46565b9150612309826122a2565b604082019050919050565b6000602082019050818103600083015261232d816122f1565b9050919050565b7f596f75206d757374206f776e2074686174206e616d6520616e6420746861742060008201527f7066702e00000000000000000000000000000000000000000000000000000000602082015250565b6000612390602483611d46565b915061239b82612334565b604082019050919050565b600060208201905081810360008301526123bf81612383565b9050919050565b7f4f6e6c79206f776e6572206f72206d616e616765722063616e2077697468647260008201527f61772066726f6d20636f6e74726163742e000000000000000000000000000000602082015250565b6000612422603183611d46565b915061242d826123c6565b604082019050919050565b6000602082019050818103600083015261245181612415565b9050919050565b7f4e6f7468696e6720746f20776974686472617721000000000000000000000000600082015250565b600061248e601483611d46565b915061249982612458565b602082019050919050565b600060208201905081810360008301526124bd81612481565b9050919050565b60006124d76124d284611f5a565b611f3f565b9050828152602081018484840111156124f3576124f2611eda565b5b6124fe848285611d57565b509392505050565b600082601f83011261251b5761251a611ed5565b5b815161252b8482602086016124c4565b91505092915050565b60006020828403121561254a57612549611cce565b5b600082015167ffffffffffffffff81111561256857612567611cd3565b5b61257484828501612506565b91505092915050565b7f4e487b7100000000000000000000000000000000000000000000000000000000600052601160045260246000fd5b60006125b782611cd8565b91506125c283611cd8565b9250828210156125d5576125d461257d565b5b828203905092915050565b60006125eb82611cd8565b91506125f683611cd8565b9250817fffffffffffffffffffffffffffffffffffffffffffffffffffffffffffffffff048311821515161561262f5761262e61257d565b5b828202905092915050565b7f416d6f756e742069732077726f6e670000000000000000000000000000000000600082015250565b6000612670600f83611d46565b915061267b8261263a565b602082019050919050565b6000602082019050818103600083015261269f81612663565b9050919050565b60006126b182611cd8565b91506126bc83611cd8565b9250827fffffffffffffffffffffffffffffffffffffffffffffffffffffffffffffffff038211156126f1576126f061257d565b5b828201905092915050565b7f43616e277420756e6c696e6b2e00000000000000000000000000000000000000600082015250565b6000612732600d83611d46565b915061273d826126fc565b602082019050919050565b6000602082019050818103600083015261276181612725565b9050919050565b600061277382611cd8565b915060008214156127875761278661257d565b5b600182039050919050565b7f4f776e61626c653a206e6577206f776e657220697320746865207a65726f206160008201527f6464726573730000000000000000000000000000000000000000000000000000602082015250565b60006127ee602683611d46565b91506127f982612792565b604082019050919050565b6000602082019050818103600083015261281d816127e1565b9050919050565b7f43616e2774206c696e6b2e000000000000000000000000000000000000000000600082015250565b600061285a600b83611d46565b915061286582612824565b602082019050919050565b600060208201905081810360008301526128898161284d565b9050919050565b7f54727920746f206c696e6b20616761696e206e6674732e000000000000000000600082015250565b60006128c6601783611d46565b91506128d182612890565b602082019050919050565b600060208201905081810360008301526128f5816128b9565b9050919050565b600081905092915050565b600061291282611d3b565b61291c81856128fc565b935061292c818560208601611d57565b80840191505092915050565b7f2e00000000000000000000000000000000000000000000000000000000000000600082015250565b600061296e6001836128fc565b915061297982612938565b600182019050919050565b60008190508160005260206000209050919050565b600081546129a6816121c2565b6129b081866128fc565b945060018216600081146129cb57600181146129dc57612a0f565b60ff19831686528186019350612a0f565b6129e585612984565b60005b83811015612a07578154818901526001820191506020810190506129e8565b838801955050505b50505092915050565b6000612a248285612907565b9150612a2f82612961565b9150612a3b8284612999565b91508190509392505050565b6000612a5282611cd8565b91507fffffffffffffffffffffffffffffffffffffffffffffffffffffffffffffffff821415612a8557612a8461257d565b5b600182019050919050565b7f54686973206e616d6520646f65736e2774206578697374732e00000000000000600082015250565b6000612ac6601983611d46565b9150612ad182612a90565b602082019050919050565b60006020820190508181036000830152612af581612ab9565b905091905056fea264697066735822122042bc7c98b32d0f115d71a402abd417a07bbbda811f81f0b7dc624200d4a3d80b64736f6c634300080b0033",
  "immutableReferences": {},
  "source": "// SPDX-License-Identifier: MIT\npragma solidity ^0.8.6;\n\nimport \"@openzeppelin/contracts/access/Ownable.sol\";\nimport \"../interfaces/IMEGO.sol\";\nimport \"../interfaces/IERC721.sol\";\n\n/**\n * @title PFPMEGO\n * PFPMEGO - Extending MEGO with PFP\n */\ncontract PFPMEGO is Ownable {\n    IERC721 private _pfp;\n    IMEGO private _mego;\n    string private gate = \"ape\";\n    address public manager;\n    uint256 public linked = 0;\n    uint256 public paid = 0;\n    uint256 public amount = 2 ether;\n    mapping(uint256 => uint256) public _pfpToName;\n    mapping(uint256 => uint256) public _nameToPfp;\n    mapping(uint256 => string) public _idToName;\n\n    constructor(\n        address MEGO,\n        address PFP,\n        string memory _gate\n    ) {\n        _mego = IMEGO(MEGO);\n        _pfp = IERC721(PFP);\n        gate = _gate;\n    }\n\n    /**\n     * Admin functions to fix base addresses or gate if needed\n     */\n    function fixMEGO(address MEGO) public onlyOwner {\n        _mego = IMEGO(MEGO);\n    }\n\n    function fixPFP(address PFP) public onlyOwner {\n        _pfp = IERC721(PFP);\n    }\n\n    function fixGate(string memory _gate) public onlyOwner {\n        gate = _gate;\n    }\n\n    function fixManager(address _manager) public onlyOwner {\n        manager = _manager;\n    }\n\n    function fixReward(uint256 _amount) public onlyOwner {\n        amount = _amount;\n    }\n\n    function depositEarnings() public payable onlyOwner {\n        uint256 to_pay = linked - paid;\n        uint256 amount_to_pay = to_pay * amount;\n        require(msg.value > 0 && msg.value == amount_to_pay, \"Amount is wrong\");\n        paid += to_pay;\n    }\n\n    /**\n     * Internal function to return the tokenId for a specific name\n     */\n    function returnNameId(string memory _name) internal view returns (uint256) {\n        uint256 tknId = _mego._nameToTokenId(\n            string(abi.encodePacked(_name, \".\", gate))\n        );\n        require(tknId > 0, \"This name doesn't exists.\");\n        return tknId;\n    }\n\n    /**\n     * Check if sender can add or not a PGP key\n     */\n    function canAdd(string memory _name, uint256 pfpId)\n        public\n        view\n        returns (bool)\n    {\n        uint256 megobal = _mego.balanceOf(msg.sender);\n        uint256 pfpbal = _pfp.balanceOf(msg.sender);\n        require(\n            megobal > 0 && pfpbal > 0,\n            \"Must own at least one name and one pfp.\"\n        );\n        uint256 nameId = returnNameId(_name);\n        require(\n            _mego.ownerOf(nameId) == msg.sender &&\n                _pfp.ownerOf(pfpId) == msg.sender,\n            \"You must own that name and that pfp.\"\n        );\n        return true;\n    }\n\n    /**\n     * Add name to profile picture\n     */\n    function linkName(string memory _name, uint256 pfpId) public {\n        require(canAdd(_name, pfpId), \"Can't link.\");\n        uint256 nameId = returnNameId(_name);\n        require(\n            _nameToPfp[nameId] == 0 && _pfpToName[pfpId] == 0,\n            \"Try to link again nfts.\"\n        );\n        _pfpToName[pfpId] = nameId;\n        _nameToPfp[nameId] = pfpId;\n        _idToName[nameId] = string(abi.encodePacked(_name, \".\", gate));\n        linked++;\n    }\n\n    /**\n     * Remove name to profile picture\n     */\n    function unlinkName(string memory _name) public {\n        uint256 nameId = returnNameId(_name);\n        uint256 pfpId = _nameToPfp[nameId];\n        require(canAdd(_name, pfpId), \"Can't unlink.\");\n        _pfpToName[pfpId] = 0;\n        _nameToPfp[nameId] = 0;\n        _idToName[nameId] = \"\";\n        linked--;\n    }\n\n    /**\n     * Get name for profile picture\n     */\n    function returnName(uint256 pfpId) public view returns (string memory) {\n        uint256 nameId = _pfpToName[pfpId];\n        require(\n            _mego.ownerOf(nameId) == _pfp.ownerOf(pfpId),\n            \"Owner is not the same.\"\n        );\n        return _idToName[nameId];\n    }\n\n    /**\n     * Get pfp for given name\n     */\n    function returnPfpId(string memory _name) public view returns (uint256) {\n        uint256 nameId = returnNameId(_name);\n        uint256 pfpId = _nameToPfp[nameId];\n        require(\n            _mego.ownerOf(nameId) == _pfp.ownerOf(pfpId),\n            \"Owner is not the same.\"\n        );\n        return pfpId;\n    }\n\n    /**\n     * Get pfp for given name\n     */\n    function returnPfpURI(string memory _name)\n        public\n        view\n        returns (string memory)\n    {\n        uint256 nameId = returnNameId(_name);\n        uint256 pfpId = _nameToPfp[nameId];\n        require(\n            _mego.ownerOf(nameId) == _pfp.ownerOf(pfpId),\n            \"Owner is not the same.\"\n        );\n        return _pfp.tokenURI(pfpId);\n    }\n\n    function withdrawMatic() public {\n        require(\n            msg.sender == owner() || msg.sender == manager,\n            \"Only owner or manager can withdraw from contract.\"\n        );\n        uint256 balance = address(this).balance;\n        require(balance > 0, \"Nothing to withdraw!\");\n        payable(msg.sender).transfer(balance);\n    }\n}\n",
  "sourcePath": "/home/turinglabs/GIT/YOMI/@mego/mego-primatic/contracts/PFPMEGO.sol",
  "compiler": {
    "name": "solc",
    "version": "0.8.11+commit.d7f03943.Emscripten.clang"
  },
  "schemaVersion": "3.4.3",
  "updatedAt": "2022-02-08T09:20:29.612Z",
  "networkType": "ethereum",
  "devdoc": {
    "kind": "dev",
    "methods": {
      "owner()": {
        "details": "Returns the address of the current owner."
      },
      "renounceOwnership()": {
        "details": "Leaves the contract without owner. It will not be possible to call `onlyOwner` functions anymore. Can only be called by the current owner. NOTE: Renouncing ownership will leave the contract without an owner, thereby removing any functionality that is only available to the owner."
      },
      "transferOwnership(address)": {
        "details": "Transfers ownership of the contract to a new account (`newOwner`). Can only be called by the current owner."
      }
    },
    "title": "PFPMEGO PFPMEGO - Extending MEGO with PFP",
    "version": 1
  },
  "userdoc": {
    "kind": "user",
    "methods": {
      "canAdd(string,uint256)": {
        "notice": "Check if sender can add or not a PGP key"
      },
      "fixMEGO(address)": {
        "notice": "Admin functions to fix base addresses or gate if needed"
      },
      "linkName(string,uint256)": {
        "notice": "Add name to profile picture"
      },
      "returnName(uint256)": {
        "notice": "Get name for profile picture"
      },
      "returnPfpId(string)": {
        "notice": "Get pfp for given name"
      },
      "returnPfpURI(string)": {
        "notice": "Get pfp for given name"
      },
      "unlinkName(string)": {
        "notice": "Remove name to profile picture"
      }
    },
    "version": 1
  }
}