{
  "contractName": "PFPMEGO",
  "abi": [
    {
      "inputs": [
        {
          "internalType": "address",
          "name": "MEGO",
          "type": "address"
        },
        {
          "internalType": "address",
          "name": "PFP",
          "type": "address"
        },
        {
          "internalType": "string",
          "name": "_gate",
          "type": "string"
        }
      ],
      "stateMutability": "nonpayable",
      "type": "constructor"
    },
    {
      "anonymous": false,
      "inputs": [
        {
          "indexed": true,
          "internalType": "address",
          "name": "previousOwner",
          "type": "address"
        },
        {
          "indexed": true,
          "internalType": "address",
          "name": "newOwner",
          "type": "address"
        }
      ],
      "name": "OwnershipTransferred",
      "type": "event"
    },
    {
      "inputs": [
        {
          "internalType": "uint256",
          "name": "",
          "type": "uint256"
        }
      ],
      "name": "_idToName",
      "outputs": [
        {
          "internalType": "string",
          "name": "",
          "type": "string"
        }
      ],
      "stateMutability": "view",
      "type": "function",
      "constant": true
    },
    {
      "inputs": [
        {
          "internalType": "uint256",
          "name": "",
          "type": "uint256"
        }
      ],
      "name": "_nameToPfp",
      "outputs": [
        {
          "internalType": "uint256",
          "name": "",
          "type": "uint256"
        }
      ],
      "stateMutability": "view",
      "type": "function",
      "constant": true
    },
    {
      "inputs": [
        {
          "internalType": "uint256",
          "name": "",
          "type": "uint256"
        }
      ],
      "name": "_pfpToName",
      "outputs": [
        {
          "internalType": "uint256",
          "name": "",
          "type": "uint256"
        }
      ],
      "stateMutability": "view",
      "type": "function",
      "constant": true
    },
    {
      "inputs": [],
      "name": "owner",
      "outputs": [
        {
          "internalType": "address",
          "name": "",
          "type": "address"
        }
      ],
      "stateMutability": "view",
      "type": "function",
      "constant": true
    },
    {
      "inputs": [],
      "name": "renounceOwnership",
      "outputs": [],
      "stateMutability": "nonpayable",
      "type": "function"
    },
    {
      "inputs": [
        {
          "internalType": "address",
          "name": "newOwner",
          "type": "address"
        }
      ],
      "name": "transferOwnership",
      "outputs": [],
      "stateMutability": "nonpayable",
      "type": "function"
    },
    {
      "inputs": [
        {
          "internalType": "address",
          "name": "MEGO",
          "type": "address"
        }
      ],
      "name": "fixMEGO",
      "outputs": [],
      "stateMutability": "nonpayable",
      "type": "function"
    },
    {
      "inputs": [
        {
          "internalType": "address",
          "name": "PFP",
          "type": "address"
        }
      ],
      "name": "fixPFP",
      "outputs": [],
      "stateMutability": "nonpayable",
      "type": "function"
    },
    {
      "inputs": [
        {
          "internalType": "string",
          "name": "_gate",
          "type": "string"
        }
      ],
      "name": "fixGate",
      "outputs": [],
      "stateMutability": "nonpayable",
      "type": "function"
    },
    {
      "inputs": [
        {
          "internalType": "string",
          "name": "_name",
          "type": "string"
        },
        {
          "internalType": "uint256",
          "name": "pfpId",
          "type": "uint256"
        }
      ],
      "name": "canAdd",
      "outputs": [
        {
          "internalType": "bool",
          "name": "",
          "type": "bool"
        }
      ],
      "stateMutability": "view",
      "type": "function",
      "constant": true
    },
    {
      "inputs": [
        {
          "internalType": "string",
          "name": "_name",
          "type": "string"
        },
        {
          "internalType": "uint256",
          "name": "pfpId",
          "type": "uint256"
        }
      ],
      "name": "linkName",
      "outputs": [],
      "stateMutability": "nonpayable",
      "type": "function"
    },
    {
      "inputs": [
        {
          "internalType": "string",
          "name": "_name",
          "type": "string"
        }
      ],
      "name": "unlinkName",
      "outputs": [],
      "stateMutability": "nonpayable",
      "type": "function"
    },
    {
      "inputs": [
        {
          "internalType": "uint256",
          "name": "pfpId",
          "type": "uint256"
        }
      ],
      "name": "returnName",
      "outputs": [
        {
          "internalType": "string",
          "name": "",
          "type": "string"
        }
      ],
      "stateMutability": "view",
      "type": "function",
      "constant": true
    },
    {
      "inputs": [
        {
          "internalType": "string",
          "name": "_name",
          "type": "string"
        }
      ],
      "name": "returnPfpId",
      "outputs": [
        {
          "internalType": "uint256",
          "name": "",
          "type": "uint256"
        }
      ],
      "stateMutability": "view",
      "type": "function",
      "constant": true
    },
    {
      "inputs": [
        {
          "internalType": "string",
          "name": "_name",
          "type": "string"
        }
      ],
      "name": "returnPfpURI",
      "outputs": [
        {
          "internalType": "string",
          "name": "",
          "type": "string"
        }
      ],
      "stateMutability": "view",
      "type": "function",
      "constant": true
    }
  ],
  "bytecode": "0x60806040526040518060400160405280600381526020017f6170650000000000000000000000000000000000000000000000000000000000815250600390805190602001906200005192919062000215565b503480156200005f57600080fd5b50604051620027b2380380620027b28339818101604052810190620000859190620004c7565b620000a5620000996200014960201b60201c565b6200015160201b60201c565b82600260006101000a81548173ffffffffffffffffffffffffffffffffffffffff021916908373ffffffffffffffffffffffffffffffffffffffff16021790555081600160006101000a81548173ffffffffffffffffffffffffffffffffffffffff021916908373ffffffffffffffffffffffffffffffffffffffff16021790555080600390805190602001906200013f92919062000215565b50505050620005a7565b600033905090565b60008060009054906101000a900473ffffffffffffffffffffffffffffffffffffffff169050816000806101000a81548173ffffffffffffffffffffffffffffffffffffffff021916908373ffffffffffffffffffffffffffffffffffffffff1602179055508173ffffffffffffffffffffffffffffffffffffffff168173ffffffffffffffffffffffffffffffffffffffff167f8be0079c531659141344cd1fd0a4f28419497f9722a3daafe3b4186f6b6457e060405160405180910390a35050565b828054620002239062000571565b90600052602060002090601f01602090048101928262000247576000855562000293565b82601f106200026257805160ff191683800117855562000293565b8280016001018555821562000293579182015b828111156200029257825182559160200191906001019062000275565b5b509050620002a29190620002a6565b5090565b5b80821115620002c1576000816000905550600101620002a7565b5090565b6000604051905090565b600080fd5b600080fd5b600073ffffffffffffffffffffffffffffffffffffffff82169050919050565b60006200030682620002d9565b9050919050565b6200031881620002f9565b81146200032457600080fd5b50565b60008151905062000338816200030d565b92915050565b600080fd5b600080fd5b6000601f19601f8301169050919050565b7f4e487b7100000000000000000000000000000000000000000000000000000000600052604160045260246000fd5b620003938262000348565b810181811067ffffffffffffffff82111715620003b557620003b462000359565b5b80604052505050565b6000620003ca620002c5565b9050620003d8828262000388565b919050565b600067ffffffffffffffff821115620003fb57620003fa62000359565b5b620004068262000348565b9050602081019050919050565b60005b838110156200043357808201518184015260208101905062000416565b8381111562000443576000848401525b50505050565b6000620004606200045a84620003dd565b620003be565b9050828152602081018484840111156200047f576200047e62000343565b5b6200048c84828562000413565b509392505050565b600082601f830112620004ac57620004ab6200033e565b5b8151620004be84826020860162000449565b91505092915050565b600080600060608486031215620004e357620004e2620002cf565b5b6000620004f38682870162000327565b9350506020620005068682870162000327565b925050604084015167ffffffffffffffff8111156200052a5762000529620002d4565b5b620005388682870162000494565b9150509250925092565b7f4e487b7100000000000000000000000000000000000000000000000000000000600052602260045260246000fd5b600060028204905060018216806200058a57607f821691505b60208210811415620005a157620005a062000542565b5b50919050565b6121fb80620005b76000396000f3fe608060405234801561001057600080fd5b50600436106100f55760003560e01c80638da5cb5b11610097578063ecbd705711610066578063ecbd705714610296578063f2fde38b146102b2578063f7f86668146102ce578063faf497a1146102fe576100f5565b80638da5cb5b14610210578063a8778aa61461022e578063dc5c6e191461025e578063ebc963441461027a576100f5565b80634cb0249b116100d35780634cb0249b14610176578063715018a6146101a657806382ef1614146101b05780638867ee43146101e0576100f5565b8063120b152a146100fa5780631c6769421461012a578063496e316814610146575b600080fd5b610114600480360381019061010f91906116c7565b61031a565b604051610121919061178d565b60405180910390f35b610144600480360381019061013f919061180d565b61057c565b005b610160600480360381019061015b919061196f565b61063c565b60405161016d91906119e6565b60405180910390f35b610190600480360381019061018b9190611a01565b6109c1565b60405161019d9190611a59565b60405180910390f35b6101ae610b95565b005b6101ca60048036038101906101c59190611a01565b610c1d565b6040516101d7919061178d565b60405180910390f35b6101fa60048036038101906101f591906116c7565b610e92565b6040516102079190611a59565b60405180910390f35b610218610eaa565b6040516102259190611a83565b60405180910390f35b610248600480360381019061024391906116c7565b610ed3565b6040516102559190611a59565b60405180910390f35b61027860048036038101906102739190611a01565b610eeb565b005b610294600480360381019061028f919061180d565b610f81565b005b6102b060048036038101906102ab9190611a01565b611041565b005b6102cc60048036038101906102c7919061180d565b61111d565b005b6102e860048036038101906102e391906116c7565b611215565b6040516102f5919061178d565b60405180910390f35b6103186004803603810190610313919061196f565b6112b5565b005b6060600060046000848152602001908152602001600020549050600160009054906101000a900473ffffffffffffffffffffffffffffffffffffffff1673ffffffffffffffffffffffffffffffffffffffff16636352211e846040518263ffffffff1660e01b815260040161038f9190611a59565b602060405180830381865afa1580156103ac573d6000803e3d6000fd5b505050506040513d601f19601f820116820180604052508101906103d09190611ab3565b73ffffffffffffffffffffffffffffffffffffffff16600260009054906101000a900473ffffffffffffffffffffffffffffffffffffffff1673ffffffffffffffffffffffffffffffffffffffff16636352211e836040518263ffffffff1660e01b81526004016104419190611a59565b602060405180830381865afa15801561045e573d6000803e3d6000fd5b505050506040513d601f19601f820116820180604052508101906104829190611ab3565b73ffffffffffffffffffffffffffffffffffffffff16146104d8576040517f08c379a00000000000000000000000000000000000000000000000000000000081526004016104cf90611b2c565b60405180910390fd5b6006600082815260200190815260200160002080546104f690611b7b565b80601f016020809104026020016040519081016040528092919081815260200182805461052290611b7b565b801561056f5780601f106105445761010080835404028352916020019161056f565b820191906000526020600020905b81548152906001019060200180831161055257829003601f168201915b5050505050915050919050565b6105846113ff565b73ffffffffffffffffffffffffffffffffffffffff166105a2610eaa565b73ffffffffffffffffffffffffffffffffffffffff16146105f8576040517f08c379a00000000000000000000000000000000000000000000000000000000081526004016105ef90611bf9565b60405180910390fd5b80600260006101000a81548173ffffffffffffffffffffffffffffffffffffffff021916908373ffffffffffffffffffffffffffffffffffffffff16021790555050565b600080600260009054906101000a900473ffffffffffffffffffffffffffffffffffffffff1673ffffffffffffffffffffffffffffffffffffffff166370a08231336040518263ffffffff1660e01b815260040161069a9190611a83565b602060405180830381865afa1580156106b7573d6000803e3d6000fd5b505050506040513d601f19601f820116820180604052508101906106db9190611c2e565b90506000600160009054906101000a900473ffffffffffffffffffffffffffffffffffffffff1673ffffffffffffffffffffffffffffffffffffffff166370a08231336040518263ffffffff1660e01b815260040161073a9190611a83565b602060405180830381865afa158015610757573d6000803e3d6000fd5b505050506040513d601f19601f8201168201806040525081019061077b9190611c2e565b905060008211801561078d5750600081115b6107cc576040517f08c379a00000000000000000000000000000000000000000000000000000000081526004016107c390611ccd565b60405180910390fd5b60006107d786611407565b90503373ffffffffffffffffffffffffffffffffffffffff16600260009054906101000a900473ffffffffffffffffffffffffffffffffffffffff1673ffffffffffffffffffffffffffffffffffffffff16636352211e836040518263ffffffff1660e01b815260040161084b9190611a59565b602060405180830381865afa158015610868573d6000803e3d6000fd5b505050506040513d601f19601f8201168201806040525081019061088c9190611ab3565b73ffffffffffffffffffffffffffffffffffffffff1614801561097557503373ffffffffffffffffffffffffffffffffffffffff16600160009054906101000a900473ffffffffffffffffffffffffffffffffffffffff1673ffffffffffffffffffffffffffffffffffffffff16636352211e876040518263ffffffff1660e01b815260040161091c9190611a59565b602060405180830381865afa158015610939573d6000803e3d6000fd5b505050506040513d601f19601f8201168201806040525081019061095d9190611ab3565b73ffffffffffffffffffffffffffffffffffffffff16145b6109b4576040517f08c379a00000000000000000000000000000000000000000000000000000000081526004016109ab90611d5f565b60405180910390fd5b6001935050505092915050565b6000806109cd83611407565b9050600060056000838152602001908152602001600020549050600160009054906101000a900473ffffffffffffffffffffffffffffffffffffffff1673ffffffffffffffffffffffffffffffffffffffff16636352211e826040518263ffffffff1660e01b8152600401610a429190611a59565b602060405180830381865afa158015610a5f573d6000803e3d6000fd5b505050506040513d601f19601f82011682018060405250810190610a839190611ab3565b73ffffffffffffffffffffffffffffffffffffffff16600260009054906101000a900473ffffffffffffffffffffffffffffffffffffffff1673ffffffffffffffffffffffffffffffffffffffff16636352211e846040518263ffffffff1660e01b8152600401610af49190611a59565b602060405180830381865afa158015610b11573d6000803e3d6000fd5b505050506040513d601f19601f82011682018060405250810190610b359190611ab3565b73ffffffffffffffffffffffffffffffffffffffff1614610b8b576040517f08c379a0000000000000000000000000000000000000000000000000000000008152600401610b8290611b2c565b60405180910390fd5b8092505050919050565b610b9d6113ff565b73ffffffffffffffffffffffffffffffffffffffff16610bbb610eaa565b73ffffffffffffffffffffffffffffffffffffffff1614610c11576040517f08c379a0000000000000000000000000000000000000000000000000000000008152600401610c0890611bf9565b60405180910390fd5b610c1b6000611516565b565b60606000610c2a83611407565b9050600060056000838152602001908152602001600020549050600160009054906101000a900473ffffffffffffffffffffffffffffffffffffffff1673ffffffffffffffffffffffffffffffffffffffff16636352211e826040518263ffffffff1660e01b8152600401610c9f9190611a59565b602060405180830381865afa158015610cbc573d6000803e3d6000fd5b505050506040513d601f19601f82011682018060405250810190610ce09190611ab3565b73ffffffffffffffffffffffffffffffffffffffff16600260009054906101000a900473ffffffffffffffffffffffffffffffffffffffff1673ffffffffffffffffffffffffffffffffffffffff16636352211e846040518263ffffffff1660e01b8152600401610d519190611a59565b602060405180830381865afa158015610d6e573d6000803e3d6000fd5b505050506040513d601f19601f82011682018060405250810190610d929190611ab3565b73ffffffffffffffffffffffffffffffffffffffff1614610de8576040517f08c379a0000000000000000000000000000000000000000000000000000000008152600401610ddf90611b2c565b60405180910390fd5b600160009054906101000a900473ffffffffffffffffffffffffffffffffffffffff1673ffffffffffffffffffffffffffffffffffffffff1663c87b56dd826040518263ffffffff1660e01b8152600401610e439190611a59565b600060405180830381865afa158015610e60573d6000803e3d6000fd5b505050506040513d6000823e3d601f19601f82011682018060405250810190610e899190611def565b92505050919050565b60046020528060005260406000206000915090505481565b60008060009054906101000a900473ffffffffffffffffffffffffffffffffffffffff16905090565b60056020528060005260406000206000915090505481565b610ef36113ff565b73ffffffffffffffffffffffffffffffffffffffff16610f11610eaa565b73ffffffffffffffffffffffffffffffffffffffff1614610f67576040517f08c379a0000000000000000000000000000000000000000000000000000000008152600401610f5e90611bf9565b60405180910390fd5b8060039080519060200190610f7d9291906115da565b5050565b610f896113ff565b73ffffffffffffffffffffffffffffffffffffffff16610fa7610eaa565b73ffffffffffffffffffffffffffffffffffffffff1614610ffd576040517f08c379a0000000000000000000000000000000000000000000000000000000008152600401610ff490611bf9565b60405180910390fd5b80600160006101000a81548173ffffffffffffffffffffffffffffffffffffffff021916908373ffffffffffffffffffffffffffffffffffffffff16021790555050565b600061104c82611407565b9050600060056000838152602001908152602001600020549050611070838261063c565b6110af576040517f08c379a00000000000000000000000000000000000000000000000000000000081526004016110a690611e84565b60405180910390fd5b6000600460008381526020019081526020016000208190555060006005600084815260200190815260200160002081905550604051806020016040528060008152506006600084815260200190815260200160002090805190602001906111179291906115da565b50505050565b6111256113ff565b73ffffffffffffffffffffffffffffffffffffffff16611143610eaa565b73ffffffffffffffffffffffffffffffffffffffff1614611199576040517f08c379a000000000000000000000000000000000000000000000000000000000815260040161119090611bf9565b60405180910390fd5b600073ffffffffffffffffffffffffffffffffffffffff168173ffffffffffffffffffffffffffffffffffffffff161415611209576040517f08c379a000000000000000000000000000000000000000000000000000000000815260040161120090611f16565b60405180910390fd5b61121281611516565b50565b6006602052806000526040600020600091509050805461123490611b7b565b80601f016020809104026020016040519081016040528092919081815260200182805461126090611b7b565b80156112ad5780601f10611282576101008083540402835291602001916112ad565b820191906000526020600020905b81548152906001019060200180831161129057829003601f168201915b505050505081565b6112bf828261063c565b6112fe576040517f08c379a00000000000000000000000000000000000000000000000000000000081526004016112f590611f82565b60405180910390fd5b600061130983611407565b905060006005600083815260200190815260200160002054148015611341575060006004600084815260200190815260200160002054145b611380576040517f08c379a000000000000000000000000000000000000000000000000000000000815260040161137790611fee565b60405180910390fd5b8060046000848152602001908152602001600020819055508160056000838152602001908152602001600020819055508260036040516020016113c492919061212a565b6040516020818303038152906040526006600083815260200190815260200160002090805190602001906113f99291906115da565b50505050565b600033905090565b600080600260009054906101000a900473ffffffffffffffffffffffffffffffffffffffff1673ffffffffffffffffffffffffffffffffffffffff1663a47cf97484600360405160200161145c92919061212a565b6040516020818303038152906040526040518263ffffffff1660e01b8152600401611487919061178d565b602060405180830381865afa1580156114a4573d6000803e3d6000fd5b505050506040513d601f19601f820116820180604052508101906114c89190611c2e565b90506000811161150d576040517f08c379a0000000000000000000000000000000000000000000000000000000008152600401611504906121a5565b60405180910390fd5b80915050919050565b60008060009054906101000a900473ffffffffffffffffffffffffffffffffffffffff169050816000806101000a81548173ffffffffffffffffffffffffffffffffffffffff021916908373ffffffffffffffffffffffffffffffffffffffff1602179055508173ffffffffffffffffffffffffffffffffffffffff168173ffffffffffffffffffffffffffffffffffffffff167f8be0079c531659141344cd1fd0a4f28419497f9722a3daafe3b4186f6b6457e060405160405180910390a35050565b8280546115e690611b7b565b90600052602060002090601f016020900481019282611608576000855561164f565b82601f1061162157805160ff191683800117855561164f565b8280016001018555821561164f579182015b8281111561164e578251825591602001919060010190611633565b5b50905061165c9190611660565b5090565b5b80821115611679576000816000905550600101611661565b5090565b6000604051905090565b600080fd5b600080fd5b6000819050919050565b6116a481611691565b81146116af57600080fd5b50565b6000813590506116c18161169b565b92915050565b6000602082840312156116dd576116dc611687565b5b60006116eb848285016116b2565b91505092915050565b600081519050919050565b600082825260208201905092915050565b60005b8381101561172e578082015181840152602081019050611713565b8381111561173d576000848401525b50505050565b6000601f19601f8301169050919050565b600061175f826116f4565b61176981856116ff565b9350611779818560208601611710565b61178281611743565b840191505092915050565b600060208201905081810360008301526117a78184611754565b905092915050565b600073ffffffffffffffffffffffffffffffffffffffff82169050919050565b60006117da826117af565b9050919050565b6117ea816117cf565b81146117f557600080fd5b50565b600081359050611807816117e1565b92915050565b60006020828403121561182357611822611687565b5b6000611831848285016117f8565b91505092915050565b600080fd5b600080fd5b7f4e487b7100000000000000000000000000000000000000000000000000000000600052604160045260246000fd5b61187c82611743565b810181811067ffffffffffffffff8211171561189b5761189a611844565b5b80604052505050565b60006118ae61167d565b90506118ba8282611873565b919050565b600067ffffffffffffffff8211156118da576118d9611844565b5b6118e382611743565b9050602081019050919050565b82818337600083830152505050565b600061191261190d846118bf565b6118a4565b90508281526020810184848401111561192e5761192d61183f565b5b6119398482856118f0565b509392505050565b600082601f8301126119565761195561183a565b5b81356119668482602086016118ff565b91505092915050565b6000806040838503121561198657611985611687565b5b600083013567ffffffffffffffff8111156119a4576119a361168c565b5b6119b085828601611941565b92505060206119c1858286016116b2565b9150509250929050565b60008115159050919050565b6119e0816119cb565b82525050565b60006020820190506119fb60008301846119d7565b92915050565b600060208284031215611a1757611a16611687565b5b600082013567ffffffffffffffff811115611a3557611a3461168c565b5b611a4184828501611941565b91505092915050565b611a5381611691565b82525050565b6000602082019050611a6e6000830184611a4a565b92915050565b611a7d816117cf565b82525050565b6000602082019050611a986000830184611a74565b92915050565b600081519050611aad816117e1565b92915050565b600060208284031215611ac957611ac8611687565b5b6000611ad784828501611a9e565b91505092915050565b7f4f776e6572206973206e6f74207468652073616d652e00000000000000000000600082015250565b6000611b166016836116ff565b9150611b2182611ae0565b602082019050919050565b60006020820190508181036000830152611b4581611b09565b9050919050565b7f4e487b7100000000000000000000000000000000000000000000000000000000600052602260045260246000fd5b60006002820490506001821680611b9357607f821691505b60208210811415611ba757611ba6611b4c565b5b50919050565b7f4f776e61626c653a2063616c6c6572206973206e6f7420746865206f776e6572600082015250565b6000611be36020836116ff565b9150611bee82611bad565b602082019050919050565b60006020820190508181036000830152611c1281611bd6565b9050919050565b600081519050611c288161169b565b92915050565b600060208284031215611c4457611c43611687565b5b6000611c5284828501611c19565b91505092915050565b7f4d757374206f776e206174206c65617374206f6e65206e616d6520616e64206f60008201527f6e65207066702e00000000000000000000000000000000000000000000000000602082015250565b6000611cb76027836116ff565b9150611cc282611c5b565b604082019050919050565b60006020820190508181036000830152611ce681611caa565b9050919050565b7f596f75206d757374206f776e2074686174206e616d6520616e6420746861742060008201527f7066702e00000000000000000000000000000000000000000000000000000000602082015250565b6000611d496024836116ff565b9150611d5482611ced565b604082019050919050565b60006020820190508181036000830152611d7881611d3c565b9050919050565b6000611d92611d8d846118bf565b6118a4565b905082815260208101848484011115611dae57611dad61183f565b5b611db9848285611710565b509392505050565b600082601f830112611dd657611dd561183a565b5b8151611de6848260208601611d7f565b91505092915050565b600060208284031215611e0557611e04611687565b5b600082015167ffffffffffffffff811115611e2357611e2261168c565b5b611e2f84828501611dc1565b91505092915050565b7f43616e277420756e6c696e6b2e00000000000000000000000000000000000000600082015250565b6000611e6e600d836116ff565b9150611e7982611e38565b602082019050919050565b60006020820190508181036000830152611e9d81611e61565b9050919050565b7f4f776e61626c653a206e6577206f776e657220697320746865207a65726f206160008201527f6464726573730000000000000000000000000000000000000000000000000000602082015250565b6000611f006026836116ff565b9150611f0b82611ea4565b604082019050919050565b60006020820190508181036000830152611f2f81611ef3565b9050919050565b7f43616e2774206c696e6b2e000000000000000000000000000000000000000000600082015250565b6000611f6c600b836116ff565b9150611f7782611f36565b602082019050919050565b60006020820190508181036000830152611f9b81611f5f565b9050919050565b7f54727920746f206c696e6b20616761696e206e6674732e000000000000000000600082015250565b6000611fd86017836116ff565b9150611fe382611fa2565b602082019050919050565b6000602082019050818103600083015261200781611fcb565b9050919050565b600081905092915050565b6000612024826116f4565b61202e818561200e565b935061203e818560208601611710565b80840191505092915050565b7f2e00000000000000000000000000000000000000000000000000000000000000600082015250565b600061208060018361200e565b915061208b8261204a565b600182019050919050565b60008190508160005260206000209050919050565b600081546120b881611b7b565b6120c2818661200e565b945060018216600081146120dd57600181146120ee57612121565b60ff19831686528186019350612121565b6120f785612096565b60005b83811015612119578154818901526001820191506020810190506120fa565b838801955050505b50505092915050565b60006121368285612019565b915061214182612073565b915061214d82846120ab565b91508190509392505050565b7f54686973206e616d6520646f65736e2774206578697374732e00000000000000600082015250565b600061218f6019836116ff565b915061219a82612159565b602082019050919050565b600060208201905081810360008301526121be81612182565b905091905056fea2646970667358221220447be9405d96ac614c1f3016597e57138e275fa1d8895331b7df722f9be488d364736f6c634300080b0033",
  "immutableReferences": {},
  "source": "// SPDX-License-Identifier: MIT\npragma solidity ^0.8.6;\n\nimport \"@openzeppelin/contracts/access/Ownable.sol\";\nimport \"../interfaces/IMEGO.sol\";\nimport \"../interfaces/IERC721.sol\";\n\n/**\n * @title PFPMEGO\n * PFPMEGO - Extending MEGO with PFP\n */\ncontract PFPMEGO is Ownable {\n    IERC721 private _pfp;\n    IMEGO private _mego;\n    string private gate = \"ape\";\n    mapping(uint256 => uint256) public _pfpToName;\n    mapping(uint256 => uint256) public _nameToPfp;\n    mapping(uint256 => string) public _idToName;\n\n    constructor(\n        address MEGO,\n        address PFP,\n        string memory _gate\n    ) {\n        _mego = IMEGO(MEGO);\n        _pfp = IERC721(PFP);\n        gate = _gate;\n    }\n\n    /**\n     * Admin functions to fix base addresses or gate if needed\n     */\n    function fixMEGO(address MEGO) public onlyOwner {\n        _mego = IMEGO(MEGO);\n    }\n\n    function fixPFP(address PFP) public onlyOwner {\n        _pfp = IERC721(PFP);\n    }\n\n    function fixGate(string memory _gate) public onlyOwner {\n        gate = _gate;\n    }\n\n    /**\n     * Internal function to return the tokenId for a specific name\n     */\n    function returnNameId(string memory _name) internal view returns (uint256) {\n        uint256 tknId = _mego._nameToTokenId(\n            string(abi.encodePacked(_name, \".\", gate))\n        );\n        require(tknId > 0, \"This name doesn't exists.\");\n        return tknId;\n    }\n\n    /**\n     * Check if sender can add or not a PGP key\n     */\n    function canAdd(string memory _name, uint256 pfpId)\n        public\n        view\n        returns (bool)\n    {\n        uint256 megobal = _mego.balanceOf(msg.sender);\n        uint256 pfpbal = _pfp.balanceOf(msg.sender);\n        require(\n            megobal > 0 && pfpbal > 0,\n            \"Must own at least one name and one pfp.\"\n        );\n        uint256 nameId = returnNameId(_name);\n        require(\n            _mego.ownerOf(nameId) == msg.sender &&\n                _pfp.ownerOf(pfpId) == msg.sender,\n            \"You must own that name and that pfp.\"\n        );\n        return true;\n    }\n\n    /**\n     * Add name to profile picture\n     */\n    function linkName(string memory _name, uint256 pfpId) public {\n        require(canAdd(_name, pfpId), \"Can't link.\");\n        uint256 nameId = returnNameId(_name);\n        require(_nameToPfp[nameId] == 0 && _pfpToName[pfpId] == 0, \"Try to link again nfts.\");\n        _pfpToName[pfpId] = nameId;\n        _nameToPfp[nameId] = pfpId;\n        _idToName[nameId] = string(abi.encodePacked(_name, \".\", gate));\n    }\n\n    /**\n     * Remove name to profile picture\n     */\n    function unlinkName(string memory _name) public {\n        uint256 nameId = returnNameId(_name);\n        uint256 pfpId = _nameToPfp[nameId];\n        require(canAdd(_name, pfpId), \"Can't unlink.\");\n        _pfpToName[pfpId] = 0;\n        _nameToPfp[nameId] = 0;\n        _idToName[nameId] = \"\";\n    }\n\n    /**\n     * Get name for profile picture\n     */\n    function returnName(uint256 pfpId) public view returns (string memory) {\n        uint256 nameId = _pfpToName[pfpId];\n        require(\n            _mego.ownerOf(nameId) == _pfp.ownerOf(pfpId),\n            \"Owner is not the same.\"\n        );\n        return _idToName[nameId];\n    }\n\n    /**\n     * Get pfp for given name\n     */\n    function returnPfpId(string memory _name) public view returns (uint256) {\n        uint256 nameId = returnNameId(_name);\n        uint256 pfpId = _nameToPfp[nameId];\n        require(\n            _mego.ownerOf(nameId) == _pfp.ownerOf(pfpId),\n            \"Owner is not the same.\"\n        );\n        return pfpId;\n    }\n    \n    /**\n     * Get pfp for given name\n     */\n    function returnPfpURI(string memory _name) public view returns (string memory) {\n        uint256 nameId = returnNameId(_name);\n        uint256 pfpId = _nameToPfp[nameId];\n        require(\n            _mego.ownerOf(nameId) == _pfp.ownerOf(pfpId),\n            \"Owner is not the same.\"\n        );\n        return _pfp.tokenURI(pfpId);\n    }\n}\n",
  "sourcePath": "/home/turinglabs/GIT/YOMI/@mego/mego-primatic/contracts/PFPMEGO.sol",
  "compiler": {
    "name": "solc",
    "version": "0.8.11+commit.d7f03943.Emscripten.clang"
  },
  "schemaVersion": "3.4.3",
  "updatedAt": "2022-02-08T06:29:43.547Z",
  "networkType": "ethereum",
  "devdoc": {
    "kind": "dev",
    "methods": {
      "owner()": {
        "details": "Returns the address of the current owner."
      },
      "renounceOwnership()": {
        "details": "Leaves the contract without owner. It will not be possible to call `onlyOwner` functions anymore. Can only be called by the current owner. NOTE: Renouncing ownership will leave the contract without an owner, thereby removing any functionality that is only available to the owner."
      },
      "transferOwnership(address)": {
        "details": "Transfers ownership of the contract to a new account (`newOwner`). Can only be called by the current owner."
      }
    },
    "title": "PFPMEGO PFPMEGO - Extending MEGO with PFP",
    "version": 1
  },
  "userdoc": {
    "kind": "user",
    "methods": {
      "canAdd(string,uint256)": {
        "notice": "Check if sender can add or not a PGP key"
      },
      "fixMEGO(address)": {
        "notice": "Admin functions to fix base addresses or gate if needed"
      },
      "linkName(string,uint256)": {
        "notice": "Add name to profile picture"
      },
      "returnName(uint256)": {
        "notice": "Get name for profile picture"
      },
      "returnPfpId(string)": {
        "notice": "Get pfp for given name"
      },
      "returnPfpURI(string)": {
        "notice": "Get pfp for given name"
      },
      "unlinkName(string)": {
        "notice": "Remove name to profile picture"
      }
    },
    "version": 1
  }
}